:020000020000FC
:1000000004EF202E1AE0312E0FEF04B90AB9289818
:100010009AD4F0E0E0EA22982398249825982A9828
:060020002B982C982D988E
:1000A0000301040203040103020401030204010327
:1000B000020104010304030102040301030203011A
:1000C000020304010302010302040103020301030A
:1000D0000402030104000E9451010E94E3040E94F3
:1000E000EC000E9479000E94E3040E94EC000C9452
:1000F0006B000C947B003591303019F40E94A40001
:100100000895313029F1323031F1333039F1343062
:1001100041F10895732F781711F00C949B004395CB
:100120000C949200813001F1823029F1833051F139
:10013000843079F10895813099F18230C1F18330B2
:1001400009F1843031F108950E94F0000C94A4006C
:100150000E94A30108950E94EC0108950E943502B7
:1001600008950E947E0208950E94B5030E94E30450
:100170000C946B0008950E94E3030E94E3040C9426
:100180006B0008950E941A040E94E3040C946B0013
:1001900008950E945A040E94E3040C946B00089591
:1001A0000E94C7020E94E3040C946B0008950E9411
:1001B000F5020E94E3040C946B0008950E942C0346
:1001C0000E94E3040C946B0008950E946C030E944B
:1001D000E3040C946B00089501E0C6D3EFD30895B7
:1001E00000E2D3D3EBD300E2D0D3E8D300E2CDD307
:1001F000E5D307E4CAD3E2D301E4C7D3DFD30DE4E8
:10020000C4D3DCD305E4C1D3D9D300E2BED3D6D363
:1002100005E4BBD3D3D30EE4B8D3D0D304E4B5D331
:10022000CDD305E4B2D3CAD304E4AFD3C7D300E23D
:10023000ACD3C4D300E2A9D3C1D300E2A6D3BED3CA
:1002400000EC92D3BBD300E2A0D3B8D309E79DD38F
:10025000B5D30FE69AD3B2D305E797D3AFD302E76E
:1002600094D3ACD300E291D3A9D303E78ED3A6D322
:1002700003E68BD3A3D30FE688D3A0D302E785D3BD
:100280009DD305E682D39AD30AE37FD397D300E2C6
:100290007CD394D308E779D391D308E776D38ED370
:1002A000089500E272D38AD300E26FD387D300E2CD
:1002B0006CD384D300E269D381D300E266D37ED3CA
:1002C00000E263D37BD300E260D378D300E25DD356
:1002D00075D300E25AD372D300E257D36FD300E252
:1002E00054D36CD300E251D369D300E24ED366D32A
:1002F00000E24BD363D300E248D360D300E245D39E
:100300005DD300EC31D35AD305E53FD357D300E298
:100310003CD354D300E239D351D305E536D34ED381
:1003200000E233D34BD300E230D348D305E52DD3DD
:1003300045D300E22AD342D300E227D33FD305E5D9
:1003400024D33CD3089500E320D338D300E21DD357
:1003500035D300E21AD332D300E217D32FD300E211
:1003600014D32CD300E211D329D300E20ED326D329
:1003700000E20BD323D300E208D320D300E205D35D
:100380001DD300ECF1D21AD305E5FFD217D300E25A
:10039000FCD214D300E2F9D211D305E5F6D20ED384
:1003A00000E2F3D20BD300E2F0D208D305E5EDD2A0
:1003B00005D300E2EAD202D300E2E7D2FFD205E59C
:1003C000E4D2FCD200E2E1D2F9D200E2DED2F6D2EF
:1003D00000E2DBD2F3D2089500E2D7D2EFD200E2FE
:1003E000D4D2ECD200E2D1D2E9D200E3CED2E6D22E
:1003F00000E2CBD2E3D200E2C8D2E0D200E2C5D222
:10040000DDD200E2C2D2DAD200E2BFD2D7D200E21D
:10041000BCD2D4D200ECA8D2D1D205E5B6D2CED28D
:1004200000E2B3D2CBD200E2B0D2C8D205E5ADD261
:10043000C5D200E2AAD2C2D200E2A7D2BFD205E55D
:10044000A4D2BCD200E2A1D2B9D200E29ED2B6D2EE
:1004500005E59BD2B3D200E298D2B0D200E295D2A9
:10046000ADD200E292D2AAD2089500E28ED2A6D2F4
:1004700000E28BD2A3D200E288D2A0D200E285D2E1
:100480009DD200E282D29AD200E27FD297D200E3DC
:100490007CD294D200E279D291D200E276D28ED28E
:1004A00000E273D28BD200EC5FD288D205E56DD228
:1004B00085D200E26AD282D200E267D27FD205E51D
:1004C00064D27CD200E261D279D200E25ED276D2EE
:1004D00005E55BD273D200E258D270D200E255D269
:1004E0006DD205E552D26AD200E24FD267D200E265
:1004F0004CD264D200E249D261D2089500E245D2E2
:100500005DD200E242D25AD200E23FD257D200E29C
:100510003CD254D200E239D251D200E236D24ED28D
:1005200000E233D24BD200E230D248D200E22DD2E8
:1005300045D200E32AD242D200EC16D23FD205E5E2
:1005400024D23CD200E221D239D200E21ED236D2ED
:1005500005E51BD233D200E218D230D200E215D228
:100560002DD205E512D22AD200E20FD227D200E224
:100570000CD224D205E509D221D200E206D21ED245
:1005800000E203D21BD200E200D218D2089508E59F
:10059000FCD114D200ECE8D111D205E5F6D10ED28F
:1005A00000E2F3D10BD200E2F0D108D205E5EDD1A3
:1005B00005D200E2EAD102D200E2E7D1FFD105E59F
:1005C000E4D1FCD100E2E1D1F9D100E2DED1F6D1F3
:1005D00005E5DBD1F3D100E2D8D1F0D100E2D5D1ED
:1005E000EDD100E2D2D1EAD1089500E2CED1E6D138
:1005F00000E2CBD1E3D100E2C8D1E0D108E5C5D11A
:10060000DDD100ECB1D1DAD105E5BFD1D7D100E21F
:10061000BCD1D4D100E2B9D1D1D105E5B6D1CED18A
:1006200000E2B3D1CBD100E2B0D1C8D105E5ADD164
:10063000C5D100E2AAD1C2D100E2A7D1BFD105E560
:10064000A4D1BCD100E2A1D1B9D100E29ED1B6D1F2
:1006500000E29BD1B3D1089500E297D1AFD100E27F
:1006600094D1ACD100E291D1A9D100E28ED1A6D132
:1006700000E28BD1A3D100E288D1A0D108E585D1D9
:100680009DD100EC71D19AD105E57FD197D100E2DF
:100690007CD194D100E279D191D105E576D18ED18A
:1006A00000E273D18BD100E270D188D105E56DD124
:1006B00085D100E26AD182D100E267D17FD105E520
:1006C00064D17CD100E261D179D100E25ED176D1F2
:1006D00000E25BD173D1089500E257D16FD100E2FF
:1006E00054D16CD100E251D169D100E24ED166D132
:1006F00000E24BD163D100E248D160D100E245D1A4
:100700005DD100E242D15AD100E23FD157D108E594
:100710003CD154D100EC28D151D105E536D14ED190
:1007200000E233D14BD100E230D148D105E52DD1E3
:1007300045D100E22AD142D100E227D13FD105E5DF
:1007400024D13CD100E221D139D100E21ED136D1F1
:1007500005E51BD133D100E218D130D100E215D12B
:100760002DD100E212D12AD108950FEF0ED126D15A
:1007700000ECFAD023D105E508D120D100E205D163
:100780001DD100E202D11AD105E5FFD017D100E258
:10079000FCD014D100E2F9D011D105E5F6D00ED18C
:1007A00000E2F3D00BD100E2F0D008D105E5EDD0A6
:1007B00005D100E2EAD002D100E2E7D0FFD000E2AA
:1007C000E4D0FCD0089500E2E0D0F8D000E2DDD023
:1007D000F5D000E2DAD0F2D00FEFD7D0EFD000ECB6
:1007E000C3D0ECD005E5D1D0E9D000E2CED0E6D040
:1007F00000E2CBD0E3D005E5C8D0E0D000E2C5D020
:10080000DDD000E2C2D0DAD005E5BFD0D7D000E21B
:10081000BCD0D4D000E2B9D0D1D005E5B6D0CED08E
:1008200000E2B3D0CBD000E2B0D0C8D000E2ADD06F
:10083000C5D0089500E2A9D0C1D000E2A6D0BED0B4
:1008400000E2A3D0BBD000E2A0D0B8D000E29DD09F
:10085000B5D000E29AD0B2D00FEF97D0AFD000EC75
:1008600083D0ACD005E591D0A9D000E28ED0A6D03F
:1008700000E28BD0A3D005E588D0A0D000E285D0DF
:100880009DD000E282D09AD005E57FD097D000E2DB
:100890007CD094D000E279D091D005E576D08ED08E
:1008A00000E273D08BD000E270D088D000E26DD02F
:1008B00085D0089500E269D081D000E266D07ED074
:1008C00000E263D07BD000E260D078D000E25DD05F
:1008D00075D000E25AD072D000E257D06FD000E25B
:1008E00054D06CD000E251D069D00FEF4ED066D01A
:1008F00000EC3AD063D005E548D060D000E245D0A6
:100900005DD000E242D05AD005E53FD057D000E29A
:100910003CD054D000E239D051D005E536D04ED08D
:1009200000E233D04BD000E230D048D005E52DD0E6
:1009300045D000E22AD042D000E227D03FD000E2EA
:1009400024D03CD0089503E30FD038D002E30CD07C
:1009500035D008E209D032D00CE006D001E004D056
:100960002DD006E001D00895B02FB07FBBB92998F3
:10097000289A1CD028981DD0B02FB295B07FBBB953
:10098000289A14D0289815D00895B02FB07FBBB9FD
:10099000299A289A0BD028980CD0B02FB295B07F06
:1009A000BBB9289A03D0289804D00895000000000D
:1009B00008954AE5FBDF4A95E9F70895C8E2F9DFB3
:1009C000CA95E9F70895103011F13A94C22DDFEF7E
:1009D00024E11A9981E01A990C9404051B9982E08C
:1009E0001B990C9404051C9983E01C990C94040534
:1009F0001D9984E01D990C9404052A9551F7DA9508
:100A000039F7CA9521F708950E948A0008951AE0DF
:060A100026940C94E3049F
:00000001FF
