:020000020000FC
:10000000AA2499248824AA2750E060E008EC202E36
:1000100096E1392E0FEF04B90AB92898C5D6F0E059
:0E002000E0EA22982398249825980E947900FF
:1000A0000301040203040103020401030204010327
:1000B000020104010304030102040301030203011A
:1000C000020304010302010302040103020301030A
:1000D0000402030104000E9445010E9404030E94DF
:1000E00015070E9445010E9488000E9415070C9484
:1000F0006B000E9477010E943D070E943D070E940D
:1001000045010E9449010E943D070E944501089552
:100110000C948A003591303019F40E9499000895AA
:10012000313091F03230A9F03330C1F03430D9F0B1
:1001300008955A2D5233E1F05030F1F00E9432010F
:100140000E94A3020C9499000E9432010E9468034D
:1001500008950E9432010E94BA0308950E9432015C
:100160000E940C0408950E9432010E945E040895CA
:100170000E94DB010C94B8000E943F020C94BC006A
:100180000E9445010E9432010E94B0040E941007A3
:100190000C946B0008950E9445010E9432010E9458
:1001A000E7040E9410070C946B0008950E9445011B
:1001B0000E9432010E9427050E9410070C946B00D8
:1001C00008950E9445010E9432010E9470050E941C
:1001D00010070C946B000895732F781711F00C948E
:1001E000FD00A3940C94F400813081F08230C9F0BA
:1001F000833011F1843059F10895813009F2823051
:1002000051F2833099F28430E1F208950E94450161
:100210000E9432010E94C2050E9410070C946B00DC
:1002200008950E9445010E9432010E94F9050E9432
:1002300010070C946B0008950E9445010E94320142
:100240000E9439060E9410070C946B0008950E94CA
:1002500045010E9432010E9482060E9410070C9400
:100260006B0008950E9437010E944101089599246E
:100270008A2CAAE08A1A18F093940C943A018A0EF8
:100280000895A0E38A0E9A0E089501E09ED5C8D580
:10029000089500EC9AD5C4D500E2A8D5C1D500E2F6
:1002A000A5D5BED507E6A2D5BBD505E69FD5B8D561
:1002B00004E79CD5B5D500E299D5B2D502E796D52D
:1002C000AFD505E693D5ACD501E690D5A9D504E622
:1002D0008DD5A6D509E78AD5A3D50EE287D5A0D5B9
:1002E0000EE284D59DD50EE281D59AD508950CEF06
:1002F0007DD596D500E27AD593D500E277D590D515
:1003000000E274D58DD500E271D58AD500E26ED5B4
:1003100087D507E46BD584D501E468D581D50DE494
:1003200065D57ED505E462D57BD500E25FD578D56D
:1003300000E25CD575D500E259D572D500E256D5FC
:100340006FD500E253D56CD50CEF50D569D500ECD4
:100350003CD566D505E54AD563D500E247D560D5DD
:1003600007E744D55DD508E641D55AD501E63ED527
:1003700057D503E63BD554D50BE638D551D500E229
:1003800035D54ED501E632D54BD500E22FD548D52F
:100390000DE62CD545D50FE629D542D50CE626D558
:1003A0003FD505E623D53CD500E220D539D505E576
:1003B0001DD536D5089500E519D532D505E616D5F3
:1003C0002FD50FE613D52CD500E710D529D50CE68F
:1003D0000DD526D505E60AD523D500E207D520D5CB
:1003E00003E704D51DD505E601D51AD505E6FED4EB
:1003F00017D500E2FBD414D507E7F8D411D508E6E9
:10040000F5D40ED501E6F2D40BD504E7EFD408D528
:1004100000E2ECD405D500ECD8D402D504E7E6D44C
:10042000FFD408E6E3D4FCD405E6E0D4F9D409E728
:10043000DDD4F6D400E2DAD4F3D407E7D7D4F0D48D
:1004400001E6D4D4EDD40EE6D1D4EAD404E7CED478
:10045000E7D400E2CBD4E4D404E7C8D4E1D40FE677
:10046000C5D4DED400E2C2D4DBD403E7BFD4D8D4F1
:1004700005E6BCD4D5D405E6B9D4D2D408950CEFA2
:10048000B5D4CED400E2B2D4CBD400E2AFD4C8D439
:1004900000E2ACD4C5D409E5A9D4C2D40FE4A6D4F3
:1004A000BFD405E5A3D4BCD400E2A0D4B9D40CE4F5
:1004B0009DD4B6D40FE49AD4B3D403E597D4B0D482
:1004C00004E594D4ADD400E291D4AAD400E28ED451
:1004D000A7D400E28BD4A4D40CEF88D4A1D400EC30
:1004E00074D49ED405E582D49BD400E27FD498D402
:1004F00000E27CD495D400E279D492D400E276D4A0
:100500008FD40CE473D48CD40FE470D489D40FE46A
:100510006DD486D403E56AD483D405E467D480D44B
:1005200002E564D47DD400E261D47AD400E25ED4E2
:1005300077D400E25BD474D400E258D471D405E5DA
:1005400055D46ED4089500E251D46AD400E24ED45A
:1005500067D400E24BD464D407E448D461D401E406
:1005600045D45ED40DE442D45BD405E43FD458D4E2
:1005700000E23CD455D405E439D452D40EE436D448
:100580004FD404E433D44CD405E430D449D404E447
:100590002DD446D400E22AD443D400E227D440D458
:1005A00000E224D43DD400EC10D43AD400E21ED4AE
:1005B00037D409E71BD434D40FE618D431D405E777
:1005C00015D42ED402E712D42BD400E20FD428D4B1
:1005D00003E70CD425D403E609D422D40FE606D4CD
:1005E0001FD402E703D41CD405E600D419D40AE3CF
:1005F000FDD316D400E2FAD313D4092DF7D310D4C7
:10060000082DF4D30DD4089500E2F0D309D400E20C
:10061000EDD306D400E2EAD303D400E2E7D300D45A
:1006200000E2E4D3FDD300E2E1D3FAD300E2DED36B
:10063000F7D300E2DBD3F4D300E2D8D3F1D300E266
:10064000D5D3EED300E2D2D3EBD300E2CFD3E8D3BD
:1006500000E2CCD3E5D300E2C9D3E2D300E2C6D3B3
:10066000DFD300E2C3D3DCD300ECAFD3D9D305E5AD
:10067000BDD3D6D300E2BAD3D3D300E2B7D3D0D31D
:1006800005E5B4D3CDD300E2B1D3CAD300E2AED3F3
:10069000C7D305E5ABD3C4D300E2A8D3C1D300E2EE
:1006A000A5D3BED305E5A2D3BBD300E29FD3B8D375
:1006B00000E29CD3B5D300E299D3B2D300E296D343
:1006C000AFD3092D93D3ACD3082D90D3A9D30895DC
:1006D0000CEF8CD3A5D300E289D3A2D300E286D35A
:1006E0009FD300E283D39CD300E280D399D300E26E
:1006F0007DD396D300E27AD393D300E277D390D31D
:1007000000E274D38DD300E271D38AD300EC5DD3C1
:1007100087D305E56BD384D300E268D381D300E2AD
:1007200065D37ED305E562D37BD300E25FD378D374
:1007300000E25CD375D305E559D372D300E256D3FA
:100740006FD300E253D36CD305E550D369D300E2F5
:100750004DD366D300E24AD363D300E247D360D3DC
:1007600000E244D35DD3092D41D35AD3082D3ED3A3
:1007700057D3089500E23AD353D300E237D350D38E
:1007800000E234D34DD30CEF31D34AD300E22ED361
:1007900047D300E22BD344D300E228D341D300E275
:1007A00025D33ED300E222D33BD300E21FD338D37C
:1007B00000EC0BD335D305E519D332D300E216D3C1
:1007C0002FD300E213D32CD305E510D329D300E2B5
:1007D0000DD326D300E20AD323D305E507D320D3D4
:1007E00000E204D31DD300E201D31AD305E5FED203
:1007F00017D300E2FBD214D300E2F8D211D300E207
:10080000F5D20ED300E2F2D20BD3092DEFD208D3EA
:10081000082DECD205D3089500E2E8D201D300E21E
:10082000E5D2FED200E2E2D2FBD200E2DFD2F8D281
:1008300000E2DCD2F5D200E2D9D2F2D20CEFD6D26D
:10084000EFD200E2D3D2ECD200E2D0D2E9D200E281
:10085000CDD2E6D200ECB9D2E3D205E5C7D2E0D2E0
:1008600000E2C4D2DDD200E2C1D2DAD205E5BED2C6
:10087000D7D200E2BBD2D4D200E2B8D2D1D205E5C1
:10088000B5D2CED200E2B2D2CBD200E2AFD2C8D241
:1008900005E5ACD2C5D200E2A9D2C2D200E2A6D20E
:1008A000BFD200E2A3D2BCD200E2A0D2B9D2092DBD
:1008B0009DD2B6D2082D9AD2B3D2089500E296D234
:1008C000AFD200E293D2ACD200E290D2A9D200E241
:1008D0008DD2A6D200E28AD2A3D200E287D2A0D2E1
:1008E00000E284D29DD200E281D29AD200E27ED28E
:1008F00097D20CEF7BD294D200EC67D291D205E56F
:1009000075D28ED200E272D28BD200E26FD288D240
:1009100005E56CD285D200E269D282D200E266D2CD
:100920007FD205E563D27CD200E260D279D200E2C8
:100930005DD276D205E55AD273D200E257D270D298
:1009400000E254D26DD200E251D26AD200E24ED21D
:1009500067D2092D4BD264D2082D48D261D20895B6
:1009600008E544D25DD200EC30D25AD205E53ED241
:1009700057D200E23BD254D200E238D251D205E540
:1009800035D24ED200E232D24BD200E22FD248D240
:1009900005E52CD245D200E229D242D200E226D28D
:1009A0003FD205E523D23CD200E220D239D200E288
:1009B0001DD236D200E21AD233D200E217D230D2A0
:1009C000092D14D22DD2082D11D22AD2089500E279
:1009D0000DD226D200E20AD223D200E207D220D2E0
:1009E00008E504D21DD200ECF0D11AD205E5FED103
:1009F00017D200E2FBD114D200E2F8D111D205E502
:100A0000F5D10ED200E2F2D10BD200E2EFD108D242
:100A100005E5ECD105D200E2E9D102D200E2E6D14F
:100A2000FFD105E5E3D1FCD100E2E0D1F9D100E24C
:100A3000DDD1F6D100E2DAD1F3D100E2D7D1F0D1A5
:100A4000092DD4D1EDD1082DD1D1EAD1089500E2FC
:100A5000CDD1E6D100E2CAD1E3D100E2C7D1E0D1E5
:100A600000E2C4D1DDD100E2C1D1DAD100E2BED1D1
:100A7000D7D108E5BBD1D4D100ECA7D1D1D105E5C0
:100A8000B5D1CED100E2B2D1CBD100E2AFD1C8D145
:100A900005E5ACD1C5D100E2A9D1C2D100E2A6D111
:100AA000BFD105E5A3D1BCD100E2A0D1B9D100E20C
:100AB0009DD1B6D105E59AD1B3D100E297D1B0D19D
:100AC00000E294D1ADD100E291D1AAD100E28ED161
:100AD000A7D1092D8BD1A4D1082D88D1A1D10895FA
:100AE00000E284D19DD100E281D19AD100E27ED191
:100AF00097D100E27BD194D100E278D191D100E28C
:100B000075D18ED100E272D18BD100E26FD188D144
:100B100000E26CD185D108E569D182D100EC55D1D4
:100B20007FD105E563D17CD100E260D179D100E2CB
:100B30005DD176D105E55AD173D100E257D170D19C
:100B400000E254D16DD105E551D16AD100E24ED118
:100B500067D100E24BD164D105E548D161D100E213
:100B600045D15ED100E242D15BD100E23FD158D104
:100B700000E23CD155D1092D39D152D1082D36D1C1
:100B80004FD108950FEF32D14BD100EC1ED148D197
:100B900005E52CD145D100E229D142D100E226D190
:100BA0003FD105E523D13CD100E220D139D100E28B
:100BB0001DD136D105E51AD133D100E217D130D19C
:100BC00000E214D12DD105E511D12AD100E20ED1D8
:100BD00027D100E20BD124D100E208D121D100E2DB
:100BE00005D11ED1092D02D11BD1082DFFD018D15E
:100BF000089500E2FBD014D100E2F8D011D100E258
:100C0000F5D00ED10FEFF2D00BD100ECDED008D131
:100C100005E5ECD005D100E2E9D002D100E2E6D052
:100C2000FFD005E5E3D0FCD000E2E0D0F9D000E24F
:100C3000DDD0F6D005E5DAD0F3D000E2D7D0F0D0A1
:100C400000E2D4D0EDD005E5D1D0EAD000E2CED09C
:100C5000E7D000E2CBD0E4D000E2C8D0E1D000E29F
:100C6000C5D0DED0092DC2D0DBD0082DBFD0D8D062
:100C7000089500E2BBD0D4D000E2B8D0D1D000E2D9
:100C8000B5D0CED000E2B2D0CBD000E2AFD0C8D049
:100C900000E2ACD0C5D00FEFA9D0C2D000EC95D007
:100CA000BFD005E5A3D0BCD000E2A0D0B9D000E20F
:100CB0009DD0B6D005E59AD0B3D000E297D0B0D0A1
:100CC00000E294D0ADD005E591D0AAD000E28ED05C
:100CD000A7D000E28BD0A4D005E588D0A1D000E257
:100CE00085D09ED000E282D09BD000E27FD098D009
:100CF00000E27CD095D0092D79D092D0082D76D005
:100D00008FD0089500E272D08BD000E26FD088D0EF
:100D100000E26CD085D000E269D082D000E266D0DB
:100D20007FD000E263D07CD000E260D079D000E2D6
:100D30005DD076D000E25AD073D00FEF57D070D08C
:100D400000EC43D06DD005E551D06AD000E24ED022
:100D500067D000E24BD064D005E548D061D000E216
:100D600045D05ED000E242D05BD005E53FD058D000
:100D700000E23CD055D000E239D052D005E536D063
:100D80004FD000E233D04CD000E230D049D000E266
:100D90002DD046D000E22AD043D0092D27D040D014
:100DA000082D24D03DD0089503E30FD039D002E3BD
:100DB0000CD036D008E209D033D00CE006D001E0E8
:100DC00004D02ED006E001D00895B02FB07FBBB97B
:100DD0002998289A1DD028981ED0B02FB295B07FA0
:100DE000BBB9289A15D0289816D008952898B02F06
:100DF000B07FBBB9299A289A0BD028980CD0B02F75
:100E0000B295B07FBBB9289A03D0289804D0089532
:100E100000000000089510E5FBDF1A95E9F708953A
:100E2000C8E2F9DFCA95E9F70895903011F19A9573
:100E3000C22DDFEF24E11A9981E01A990C9436074C
:100E40001B9982E01B990C9436071C9983E01C992E
:100E50000C9436071D9984E01D990C9436072A9549
:100E600051F7DA9539F7CA9521F708950E94EC00F9
:100E7000089594E126940C941507CFEFDFEF20EA54
:0E0E80002A95C9F6DA95B1F6CA9599F6089545
:00000001FF
