:020000020000FC
:100068000FEF04B90AB92898CDD0F0E0E0EA229859
:0E0078002398249825982A982B982C982D9838
:1000A0000301040203040103020401030204010327
:1000B000020104010304030102040301030203011A
:1000C000020304010302010302040103020301030A
:1000D0000402030104000C946D000E94BD000E9404
:1000E00008060E9490000E9408060C946D000C9473
:1000F0000D010E947B00FFCF0E9481000E948C00B6
:100100000895542FAAE000C063955A1B10F00C9478
:1001100084005A0F6A950895A0E35A0F6A0F089554
:100120000C9492003591303029F40C949800089585
:100130000C947700313031F1323049F1333061F1D4
:10014000343079F10895732F781711F00C94B400BE
:1001500043950C94AB00813049F1823071F18330CA
:1001600099F18430C1F108958130E1F18230F9F1E3
:10017000833051F1843079F108950E947C000E940F
:10018000560108950E947C000E94BA0108950E94C1
:100190007C000E941E0208950E947C000E94820240
:1001A00008950E947C000E94E40208950E947C0051
:1001B0000E947E040E94080608950E947C000E940E
:1001C000BE040E94080608950E947C000E94070554
:1001D0000E94080608950E947C000E9459050E9412
:1001E000080608950E9448030E947C0008950E941A
:1001F00088030E947C0008950E94D1030E947C0025
:1002000008950E9423040E947C0008950E94B40572
:10021000089501E0BAD4E3D4089500E2C7D4DFD44E
:1002200000E2C4D4DCD400E2C1D4D9D400E2BED40C
:10023000D6D409E5BBD4D3D40FE4B8D4D0D405E5E3
:10024000B5D4CDD400E2B2D4CAD40CE4AFD4C7D470
:100250000FE4ACD4C4D403E5A9D4C1D404E5A6D436
:10026000BED400EC92D4BBD400E2A0D4B8D400E257
:100270009DD4B5D400E29AD4B2D400E297D4AFD4DE
:1002800000E294D4ACD40CE491D4A9D40FE48ED47D
:10029000A6D40FE48BD4A3D403E588D4A0D405E47A
:1002A00085D49DD402E582D49AD4089500E27ED408
:1002B00096D400E27BD493D400E278D490D400E2C8
:1002C00075D48DD400E272D48AD400E26FD487D47E
:1002D00000E26CD484D400E269D481D400E266D414
:1002E0007ED400E263D47BD400E260D478D400E210
:1002F0005DD475D400E25AD472D400E257D46FD4DE
:1003000000E254D46CD400E251D469D400EC3DD462
:1003100066D405E54BD463D400E248D460D400E24F
:1003200045D45DD405E542D45AD400E23FD457D435
:1003300000E23CD454D405E539D451D400E236D49B
:100340004ED400E233D44BD405E530D448D400E297
:100350002DD445D400E22AD442D400E227D43FD49D
:1003600000E224D43CD4062F21D439D4052F1ED446
:1003700036D408950FE41AD432D400E217D42FD41F
:1003800000E214D42CD400E211D429D400E20ED41B
:1003900026D400E20BD423D400E208D420D400E217
:1003A00005D41DD400E202D41AD400E2FFD317D43E
:1003B00000E2FCD314D400E2F9D311D400E2F6D366
:1003C0000ED400E2F3D30BD400E2F0D308D400E261
:1003D000EDD305D400ECD9D302D405E5E7D3FFD3A0
:1003E00000E2E4D3FCD300E2E1D3F9D305E5DED3A8
:1003F000F6D300E2DBD3F3D300E2D8D3F0D305E5A4
:10040000D5D3EDD300E2D2D3EAD300E2CFD3E7D302
:1004100005E5CCD3E4D300E2C9D3E1D300E2C6D3EF
:10042000DED300E2C3D3DBD300E2C0D3D8D3062FA0
:10043000BDD3D5D3052FBAD3D2D3089500E2B6D316
:10044000CED300E2B3D3CBD300E2B0D3C8D30FE412
:10045000ADD3C5D300E2AAD3C2D300E2A7D3BFD3A2
:1004600000E2A4D3BCD300E2A1D3B9D300E29ED36F
:10047000B6D300E29BD3B3D300E298D3B0D300E26B
:1004800095D3ADD300E292D3AAD300E28FD3A7D302
:1004900000E28CD3A4D300E289D3A1D300EC75D3BE
:1004A0009ED305E583D39BD300E280D398D300E2AB
:1004B0007DD395D305E57AD392D300E277D38FD35A
:1004C00000E274D38CD305E571D389D300E26ED3F7
:1004D00086D300E26BD383D305E568D380D300E2F3
:1004E00065D37DD300E262D37AD300E25FD377D3C2
:1004F00000E25CD374D3062F59D371D3052F56D3A2
:100500006ED3089500E252D36AD300E24FD367D38B
:1005100000E24CD364D300E249D361D300E246D376
:100520005ED300E243D35BD30FE440D358D300E261
:100530003DD355D300E23AD352D300E237D34FD361
:1005400000E234D34CD300E231D349D300E22ED3BE
:1005500046D300E22BD343D300E228D340D300E2BA
:1005600025D33DD300EC11D33AD305E51FD337D3C0
:1005700000E21CD334D300E219D331D305E516D3FE
:100580002ED300E213D32BD300E210D328D305E5FA
:100590000DD325D300E20AD322D300E207D31FD321
:1005A00005E500E203D31BD300E200D318D300E239
:1005B000FDD215D300E2FAD212D3062FF7D20FD311
:1005C000052FF4D20CD3089500E2F0D208D300E254
:1005D000EDD205D300E2EAD202D300E2E7D2FFD2A5
:1005E00000E2E4D2FCD200E2E1D2F9D200E2DED2B3
:1005F000F6D200E2DBD2F3D200E2D8D2F0D20FE49E
:10060000D5D2EDD200E2D2D2EAD200E2CFD2E7D206
:1006100000E2CCD2E4D200E2C9D2E1D200E2C6D2FA
:10062000DED200E2C3D2DBD200ECAFD2D8D205E5F5
:10063000BDD2D5D200E2BAD2D2D200E2B7D2CFD266
:1006400005E5B4D2CCD200E2B1D2C9D200E2AED23A
:10065000C6D205E5ABD2C3D200E2A8D2C0D200E236
:10066000A5D2BDD205E5A2D2BAD200E29FD2B7D2BE
:1006700000E29CD2B4D200E299D2B1D200E296D28A
:10068000AED2062F93D2ABD2052F90D2A8D2089526
:1006900008E58CD2A4D200EC78D2A1D205E586D2AE
:1006A0009ED200E283D29BD200E280D298D205E5AE
:1006B0007DD295D200E27AD292D200E277D28FD266
:1006C00005E574D28CD200E271D289D200E26ED2FA
:1006D00086D205E56BD283D200E268D280D200E2F6
:1006E00065D27DD205E562D27AD200E25FD277D2BE
:1006F00000E25CD274D200E259D271D200E256D24A
:100700006ED2062F53D26BD2052F50D268D20895E5
:1007100000E24CD264D200E249D261D200E246D279
:100720005ED208E543D25BD200EC2FD258D205E569
:100730003DD255D200E23AD252D200E237D24FD265
:1007400005E534D24CD200E231D249D200E22ED2B9
:1007500046D205E52BD243D200E228D240D200E2B5
:1007600025D23DD205E522D23AD200E21FD237D2BD
:1007700000E21CD234D205E519D231D200E216D201
:100780002ED200E213D22BD200E210D228D200E205
:100790000DD225D2062F0AD222D2052F07D21FD280
:1007A000089500E203D21BD200E200D218D200E288
:1007B000FDD115D200E2FAD112D200E2F7D10FD268
:1007C00000E2F4D10CD208E5F1D109D200ECDDD180
:1007D00006D205E5EBD103D200E2E8D100D200E277
:1007E000E5D1FDD105E5E2D1FAD100E2DFD1F7D1C3
:1007F00000E2DCD1F4D105E5D9D1F1D100E2D6D1C6
:10080000EED100E2D3D1EBD105E5D0D1E8D100E2C1
:10081000CDD1E5D100E2CAD1E2D105E5C7D1DFD122
:1008200000E2C4D1DCD100E2C1D1D9D100E2BED115
:10083000D6D100E2BBD1D3D1062FB8D1D0D1052F6C
:10084000B5D1CDD1089500E2B1D1C9D100E2AED188
:10085000C6D100E2ABD1C3D100E2A8D1C0D100E241
:10086000A5D1BDD100E2A2D1BAD100E29FD1B7D1CA
:1008700000E29CD1B4D100E299D1B1D108E596D182
:10088000AED100EC82D1ABD105E590D1A8D100E288
:100890008DD1A5D100E28AD1A2D105E587D19FD122
:1008A00000E284D19CD100E281D199D105E57ED1CD
:1008B00096D100E27BD193D100E278D190D105E5C9
:1008C00075D18DD100E272D18AD100E26FD187D18A
:1008D00005E56CD184D100E269D181D100E266D115
:1008E0007ED100E263D17BD100E260D178D1062FC6
:1008F0005DD175D1052F5AD172D108950FEF56D120
:100900006ED100EC42D16BD105E550D168D100E247
:100910004DD165D100E24AD162D105E547D15FD121
:1009200000E244D15CD100E241D159D105E53ED18C
:1009300056D100E23BD153D100E238D150D105E588
:1009400035D14DD100E232D14AD100E22FD147D189
:1009500005E52CD144D100E229D141D100E226D1D4
:100960003ED100E223D13BD100E220D138D1062F85
:100970001DD135D1052F1AD132D1089500E216D1FB
:100980002ED100E213D12BD100E210D128D10FEFEC
:100990000DD125D100ECF9D022D105E507D11FD129
:1009A00000E204D11CD100E201D119D105E5FED04D
:1009B00016D100E2FBD013D100E2F8D010D105E54A
:1009C000F5D00DD100E2F2D00AD100E2EFD007D18C
:1009D00005E5ECD004D100E2E9D001D100E2E6D097
:1009E000FED005E5E3D0FBD000E2E0D0F8D000E295
:1009F000DDD0F5D000E2DAD0F2D000E2D7D0EFD0EF
:100A0000062FD4D0ECD0052FD1D0E9D0089500E244
:100A1000CDD0E5D000E2CAD0E2D000E2C7D0DFD02E
:100A200000E2C4D0DCD000E2C1D0D9D000E2BED018
:100A3000D6D00FEFBBD0D3D000ECA7D0D0D005E5F7
:100A4000B5D0CDD000E2B2D0CAD000E2AFD0C7D08E
:100A500005E5ACD0C4D000E2A9D0C1D000E2A6D058
:100A6000BED005E5A3D0BBD000E2A0D0B8D000E254
:100A70009DD0B5D005E59AD0B2D000E297D0AFD0E6
:100A800000E294D0ACD005E591D0A9D000E28ED0A0
:100A9000A6D000E28BD0A3D000E288D0A0D000E2A4
:100AA00085D09DD0062F82D09AD0052F7FD097D0A9
:100AB000089500E27BD093D000E278D090D000E29D
:100AC00075D08DD000E272D08AD000E26FD087D08E
:100AD00000E26CD084D000E269D081D000E266D020
:100AE0007ED000E263D07BD00FEF60D078D000ECF6
:100AF0004CD075D005E55AD072D000E257D06FD0F7
:100B000000E254D06CD005E551D069D000E24ED05F
:100B100066D000E24BD063D005E548D060D000E25B
:100B200045D05DD000E242D05AD005E53FD057D045
:100B300000E23CD054D000E239D051D005E536D0A7
:100B40004ED000E233D04BD000E230D048D000E2AB
:100B50002DD045D000E22AD042D0062F27D03FD05A
:100B6000052F24D03CD0089503E30FD038D002E302
:100B70000CD035D008E209D032D00CE006D001E02C
:100B800004D02DD006E001D00895B02FB07FBBB9BE
:100B90002998289A1CD028981DD0B02FB295B07FE4
:100BA000BBB9289A14D0289815D00895B02FB07FDB
:100BB000BBB9299A289A0BD028980CD0B02FB2959F
:100BC000B07FBBB9289A03D0289804D008950000BC
:100BD00000000895CAE5FBDFCA95E9F70895C8E269
:100BE000F9DF1A9981E01A990C9426061B9982E084
:100BF0001B990C9426061C9983E01C990C942606DC
:100C00001D9984E01D990C942606CA9549F708950C
:100C1000CFEFDFEF24E12A951A9981E01A990C941D
:100C200026061B9982E01B990C9426061C9983E0EA
:100C30001C990C9426061D9984E01D990C94260697
:100C400051F7DA9539F7CA9521F708950E94A30064
:020C5000089505
:00000001FF
