:020000020000FC
:0E0068000FEF04B90AB9289888D7F4E0E0E059
:1004000002010403010203040301020402030104C4
:1004100004010203020403010103040202040103B4
:1004200003020104010302040401030203040102A4
:100430000104030202040103010204030403010294
:100440000104030204020301040301020102030484
:100450000403010203020104040102030204010374
:100460000301040201020304040301020302010464
:100470000401020302040103030104020C9440027C
:100480000E941E030C9493020C94400273B17C638F
:1004900076957695703009F408958130C1F48230F4
:1004A000C9F48330D1F48430D9F40C944D02781718
:1004B000F1F00C9486027817E9F00C948302781717
:1004C000E1F00C9489027817D9F00C948C0281E049
:1004D0000C94570282E00C945B0284E00C945F025F
:1004E00088E00C94630243954A95C8F04A950E94AF
:1004F000770208950E947A0208950E947D0208956D
:100500000E94800208950E940B0308950E94060332
:1005100008950E94100308950E94150308950C94F5
:100520001E030E949302FFCF4EE20E949A020E9495
:10053000A5020895542FAAE000C063955A1B10F03D
:100540000C949D025A0F6A950895A0E35A0F6A0F02
:1005500008950C94AB023591303039F40C94B1020B
:100560000895F4E0E0E00C94AB02313039F0323021
:1005700081F03330C9F0343011F10895832F0C9499
:10058000CB030E9405080E9405080E9405088827E1
:100590000895832F0C942F040E9405080E940508DB
:1005A0000E94050888270895832F0C9493040E94C5
:1005B00005080E9405080E94050888270895832FD2
:1005C0000C94F5040E9405080E9405080E94050885
:1005D000882708950E9494020C948D060E940508B5
:1005E00008950E9494020C94CB060E940508089579
:1005F0000E9494020C9414070E94050808950E941A
:1006000094020C9466070E94050808950C945905FD
:100610000E94940208950C9497050E9494020895F4
:100620000C94E0050E94940208950C9432060E94F6
:100630009402089501E0B6D4E1D4089500E2C3D451
:10064000DDD400E2C0D4DAD400E2BDD4D7D400E2D5
:10065000BAD4D4D409E5B7D4D1D40FE4B4D4CED429
:1006600005E5B1D4CBD400E2AED4C8D40CE4ABD40D
:10067000C5D40FE4A8D4C2D403E5A5D4BFD404E5FF
:10068000A2D4BCD400EC8ED4B9D400E29CD4B6D4AD
:1006900000E299D4B3D400E296D4B0D400E293D46B
:1006A000ADD400E290D4AAD40CE48DD4A7D40FE446
:1006B0008AD4A4D40FE487D4A1D403E584D49ED4EF
:1006C00005E481D49BD402E57ED498D4089500E259
:1006D0007AD494D400E277D491D400E274D48ED446
:1006E00000E271D48BD400E26ED488D400E26BD4E3
:1006F00085D400E268D482D400E265D47FD400E2DD
:1007000062D47CD400E25FD479D400E25CD476D4A5
:1007100000E259D473D400E256D470D400E253D42A
:100720006DD400E250D46AD400E24DD467D400EC1A
:1007300039D464D405E547D461D400E244D45ED40E
:1007400000E241D45BD405E53ED458D400E23BD46A
:1007500055D400E238D452D405E535D44FD400E264
:1007600032D44CD400E22FD449D405E52CD446D45D
:1007700000E229D443D400E226D440D400E223D4BA
:100780003DD400E220D43AD4062F1DD437D4052F0F
:100790001AD434D408950FE416D430D400E213D41C
:1007A0002DD400E210D42AD400E20DD427D400E2E4
:1007B0000AD424D400E207D421D400E204D41ED405
:1007C00000E201D41BD400E2FED318D400E2FBD334
:1007D00015D400E2F8D312D400E2F5D30FD400E22E
:1007E000F2D30CD400E2EFD309D400E2ECD306D468
:1007F00000E2E9D303D400ECD5D300D405E5E3D37C
:10080000FDD300E2E0D3FAD300E2DDD3F7D305E570
:10081000DAD3F4D300E2D7D3F1D300E2D4D3EED3CA
:1008200005E5D1D3EBD300E2CED3E8D300E2CBD3BE
:10083000E5D305E5C8D3E2D300E2C5D3DFD300E2B8
:10084000C2D3DCD300E2BFD3D9D300E2BCD3D6D32A
:10085000062FB9D3D3D3052FB6D3D0D3089500E252
:10086000B2D3CCD300E2AFD3C9D300E2ACD3C6D36A
:100870000FE4A9D3C3D300E2A6D3C0D300E2A3D32D
:10088000BDD300E2A0D3BAD300E29DD3B7D300E238
:100890009AD3B4D300E297D3B1D300E294D3AED3CA
:1008A00000E291D3ABD300E28ED3A8D300E28BD386
:1008B000A5D300E288D3A2D300E285D39FD300EC76
:1008C00071D39CD305E57FD399D300E27CD396D333
:1008D00000E279D393D305E576D390D300E273D3C6
:1008E0008DD300E270D38AD305E56DD387D300E2C0
:1008F0006AD384D300E267D381D305E564D37ED382
:1009000000E261D37BD300E25ED378D300E25BD315
:1009100075D300E258D372D3062F55D36FD3052F6A
:1009200052D36CD3089500E24ED368D300E24BD388
:1009300065D300E248D362D300E245D35FD300E23F
:1009400042D35CD300E23FD359D30FE43CD356D318
:1009500000E239D353D300E236D350D300E233D38D
:100960004DD300E230D34AD300E22DD347D300E287
:100970002AD344D300E227D341D300E224D33ED389
:1009800000E221D33BD300EC0DD338D305E51BD3D4
:1009900035D300E218D332D300E215D32FD305E5C7
:1009A00012D32CD300E20FD329D300E20CD326D3E9
:1009B00005E509D323D300E206D320D300E203D315
:1009C0001DD305E500E2FFD219D300E2FCD216D315
:1009D00000E2F9D213D300E2F6D210D3062FF3D2FD
:1009E0000DD3052FF0D20AD3089500E2ECD206D33E
:1009F00000E2E9D203D300E2E6D200D300E2E3D280
:100A0000FDD200E2E0D2FAD200E2DDD2F7D200E27B
:100A1000DAD2F4D200E2D7D2F1D200E2D4D2EED2CE
:100A20000FE4D1D2EBD200E2CED2E8D200E2CBD2B8
:100A3000E5D200E2C8D2E2D200E2C5D2DFD200E2C3
:100A4000C2D2DCD200E2BFD2D9D200ECABD2D6D235
:100A500005E5B9D2D3D200E2B6D2D0D200E2B3D209
:100A6000CDD205E5B0D2CAD200E2ADD2C7D200E203
:100A7000AAD2C4D205E5A7D2C1D200E2A4D2BED286
:100A800000E2A1D2BBD205E59ED2B8D200E29BD251
:100A9000B5D200E298D2B2D200E295D2AFD200E253
:100AA00092D2ACD2062F8FD2A9D2052F8CD2A6D249
:100AB000089508E500EC76D2A1D205E584D29ED255
:100AC00000E281D29BD200E27ED298D205E57BD2B1
:100AD00095D200E278D292D200E275D28FD205E5AB
:100AE00072D28CD200E26FD289D200E26CD286D26E
:100AF00005E569D283D200E266D280D200E263D2F9
:100B00007DD205E560D27AD200E25DD277D200E2F2
:100B10005AD274D200E257D271D200E254D26ED2CD
:100B2000062F51D26BD2052F4ED268D2089500E223
:100B30004AD264D200E247D261D200E244D25ED20D
:100B400008E541D25BD200EC2DD258D205E53BD26C
:100B500055D200E238D252D200E235D24FD205E56A
:100B600032D24CD200E22FD249D200E22CD246D26D
:100B700005E529D243D200E226D240D200E223D2B8
:100B80003DD205E520D23AD200E21DD237D200E2B2
:100B90001AD234D205E517D231D200E214D22ED2C5
:100BA00000E211D22BD200E20ED228D200E20BD208
:100BB00025D2062F08D222D2052F05D21FD20895A2
:100BC00000E201D21BD200E2FED118D200E2FBD13A
:100BD00015D200E2F8D112D200E2F5D10FD200E234
:100BE000F2D10CD208E5EFD109D200ECDBD106D26C
:100BF00005E5E9D103D200E2E6D100D200E2E3D17B
:100C0000FDD105E5E0D1FAD100E2DDD1F7D100E276
:100C1000DAD1F4D105E5D7D1F1D100E2D4D1EED1CA
:100C200000E2D1D1EBD105E5CED1E8D100E2CBD1C4
:100C3000E5D100E2C8D1E2D105E5C5D1DFD100E2BE
:100C4000C2D1DCD100E2BFD1D9D100E2BCD1D6D132
:100C500000E2B9D1D3D1062FB6D1D0D1052FB3D16F
:100C6000CDD1089500E2AFD1C9D100E2ACD1C6D157
:100C700000E2A9D1C3D100E2A6D1C0D100E2A3D144
:100C8000BDD100E2A0D1BAD100E29DD1B7D100E23E
:100C90009AD1B4D100E297D1B1D108E594D1AED1C7
:100CA00000EC80D1ABD105E58ED1A8D100E28BD18B
:100CB000A5D100E288D1A2D105E585D19FD100E27E
:100CC00082D19CD100E27FD199D105E57CD196D12A
:100CD00000E279D193D100E276D190D105E573D1CC
:100CE0008DD100E270D18AD100E26DD187D105E5C6
:100CF0006AD184D100E267D181D100E264D17ED192
:100D000000E261D17BD100E25ED178D1062F5BD1C8
:100D100075D1052F58D172D108950FEF00EC42D153
:100D20006DD105E550D16AD100E24DD167D100E225
:100D30004AD164D105E547D161D100E244D15ED109
:100D400000E241D15BD105E53ED158D100E23BD173
:100D500055D100E238D152D105E535D14FD100E26D
:100D600032D14CD100E22FD149D105E52CD146D169
:100D700000E229D143D100E226D140D100E223D1C3
:100D80003DD100E220D13AD1062F1DD137D1052F18
:100D90001AD134D1089500E216D130D100E213D136
:100DA0002DD100E210D12AD10FEF0DD127D100ECC7
:100DB000F9D024D105E507D121D100E204D11ED11B
:100DC00000E201D11BD105E5FED018D100E2FBD035
:100DD00015D100E2F8D012D105E5F5D00FD100E22F
:100DE000F2D00CD100E2EFD009D105E5ECD006D16C
:100DF00000E2E9D003D100E2E6D000D105E5E3D07E
:100E0000FDD000E2E0D0FAD000E2DDD0F7D000E281
:100E1000DAD0F4D000E2D7D0F1D0062FD4D0EED083
:100E2000052FD1D0EBD0089500E2CDD0E7D000E27D
:100E3000CAD0E4D000E2C7D0E1D000E2C4D0DED016
:100E400000E2C1D0DBD000E2BED0D8D00FEFBBD0E3
:100E5000D5D000ECA7D0D2D005E5B5D0CFD000E2F8
:100E6000B2D0CCD000E2AFD0C9D005E5ACD0C6D06E
:100E700000E2A9D0C3D000E2A6D0C0D005E5A3D03F
:100E8000BDD000E2A0D0BAD000E29DD0B7D005E539
:100E90009AD0B4D000E297D0B1D000E294D0AED0D6
:100EA00005E591D0ABD000E28ED0A8D000E28BD087
:100EB000A5D000E288D0A2D000E285D09FD0062F36
:100EC00082D09CD0052F7FD099D0089500E27BD0AE
:100ED00095D000E278D092D000E275D08FD000E2B9
:100EE00072D08CD000E26FD089D000E26CD086D076
:100EF00000E269D083D000E266D080D000E263D007
:100F00007DD00FEF60D07AD000EC4CD077D005E5E3
:100F10005AD074D000E257D071D000E254D06ED0D5
:100F200005E551D06BD000E24ED068D000E24BD046
:100F300065D005E548D062D000E245D05FD000E240
:100F400042D05CD005E53FD059D000E23CD056D02D
:100F500000E239D053D005E536D050D000E233D08E
:100F60004DD000E230D04AD000E22DD047D000E290
:100F70002AD044D0062F27D041D0052F24D03ED0F0
:100F8000089503E30FD03AD002E30CD037D008E243
:100F900009D034D00CE006D001E004D02FD006E018
:100FA00001D00895B02FB07FBBB92998289A1CD0E2
:100FB00028981DD0B02FB295B07FBBB9289A14D015
:100FC000289815D00895B02FB07FBBB9299A289AD8
:100FD0000BD028980CD0B02FB295B07FBBB9289A0F
:100FE00003D0289804D00895000000000895CAE5B1
:100FF000FBDF0E944602CA95D9F70895C8E2F7DFE1
:101000000E944602CA95D9F70895CFEFDFEF24E199
:101010002A950E944602E1F7DA95C9F7CA95B1F719
:02102000089531
:00000001FF
